:1000000090EF01F01050000A16E0010A25E0030A03
:1000100034E0010A43E0070A52E0010A61E0030A02
:1000200070E0010AD8B47ED00F0AD8B48BD0010A90
:10003000D8B499D0A9D093908A8093928A829394CD
:100040008A8493968A8693988A88939A8A8A939CBC
:100050008A9C939E8A9E98D093908A9093928A824B
:1000600093948A8493968A9693988A98939A8A9A74
:10007000939C8A9C939E8A9E87D093908A80939229
:100080008A8293948A9493968A8693988A88939A7C
:100090008A9A939C8A8C939E8A9E76D093908A802B
:1000A00093928A8293948A8493968A8693988A9864
:1000B000939A8A9A939C8A8C939E8A9E65D09390F9
:1000C0008A9093928A8293948A8493968A9693983C
:1000D0008A98939A8A8A939C8A8C939E8A9E54D0FB
:1000E00093908A8093928A9293948A8493968A8634
:1000F00093988A98939A8A8A939C8A8C939E8A9ED4
:1001000043D093908A8093928A9293948A84939610
:100110008A8693988A88939A8A8A939C8A8C939EDB
:100120008A9E32D093908A8093928A8293948A8412
:1001300093968A9693988A98939A8A9A939C8A9C83
:10014000939E8A9E93908A8093928A8293948A84C3
:1001500093968A8693988A88939A8A8A939C8A8CA3
:10016000939E8A9E11D093908A8093928A829394D0
:100170008A8493968A8693988A98939A8A8A939C7B
:100180008A8C939E8A9E00D012001050010A07E0CC
:10019000030A0EE0010A15E0070A1CE024D0929041
:1001A00089809292899292948994929689961BD092
:1001B000929089909292898292948994929689964B
:1001C00012D0929089909292899292948984929678
:1001D000899609D09290899092928992929489946A
:1001E0009296898600D01200EA6A0F0EE96EEF50EF
:1001F0000EE0010E016E006A002EFED7012EFBD725
:100200004A0E006E002EFED700D0EF2EF2D712005D
:1002100093908A9093928A9293948A9493968A96D2
:1002200093988A98939A8A9A939C8A9C939E8A9E82
:1002300072EF01F00D6A0E6A0D2A928E80BE06D012
:100240000C2A0C50040802E2010E0C6E928C80BC49
:1002500023D004500A24016E000E0B20036E0450BC
:100260000A24E96E000E0B20EA6E010EEF2403C093
:10027000EAFF01C0E9FFEF6E04500A24E96E000EA8
:100280000B20EA6EEF50090807E204500A24E96ED9
:10029000000E0B20EA6EEF6A0E6A0E5003083BE375
:1002A000010E0E240C5C16E00E500A24016E000EA6
:1002B0000B20036E01C0E9FFEA6EEFCF0FF00FC015
:1002C00010F0A0DE010E0E240F6E106E5EDF020E27
:1002D0000F6E8ADF0D50310806E3010E0E240C5C10
:1002E00002E196D716D00E500A24016E000E0B20A4
:1002F000036E01C0E9FFEA6EEFCF0FF00FC010F000
:1003000081DE010E0E240F6E106E3FDF020E0F6EA7
:100310006BDF0E2AC2D70D5063088EE2B2EF01F0F8
:10032000F86AD09E620ED36E9B6AD350046AC29C58
:10033000C29EC150800B7F09C16E056A066A076ABA
:10034000086A056A010E066E020E076E030E086E3D
:10035000C00E926E010E096E0B6A050E0A6E09C080
:080360000CF068D7F9D7030087
:020000040030CA
:0E00000000C8000E0080810003C003E0034032
:00000001FF
;PIC18F1320
;CRC=000E  CREATED="19-feb.-24 09:37"
